:0A0E7000000102020303040405055B
:1002A400E4F513F512F511F510C208C205C207C230
:1002B4000612072B7E0A7F008E248F25752C0A7563
:1002C4002D1275220A75231C752A0A752B43752E67
:1002D4000A752F6A90E680E030E70E852226852392
:1002E40027852A28852B29800C852A26852B278576
:1002F4002228852329EE54E0700302040F751400AC
:100304007515807E0A7F008E168F17C374B29FFF07
:10031400740A9ECF2402CF3400FEE48F0F8E0EF5B4
:100324000DF50CF50BF50AF509F508AF0FAE0EAD9A
:100334000DAC0CAB0BAA0AA909A808C3120E5F5096
:1003440026E515250BF582E514350AF58374CDF001
:10035400E50B2401F50BE4350AF50AE43509F50942
:10036400E43508F50880C4E4F50BF50AF509F50849
:10037400AF0FAE0EAD0DAC0CAB0BAA0AA909A808C1
:10038400C3120E5F5033E517250BF582E516350AC7
:10039400F583E0FFE515250BF582E514350AF583B1
:1003A400EFF0E50B2401F50BE4350AF50AE4350911
:1003B400F509E43508F50880B785142485152574F6
:1003C400002480FF740A34FFFEC3E52D9FF52DE55C
:1003D4002C9EF52CC3E5279FF527E5269EF526C31D
:1003E400E5299FF529E5289EF528C3E5239FF523F4
:1003F400E5229EF522C3E52B9FF52BE52A9EF52ADF
:10040400C3E52F9FF52FE52E9EF52ED2E843D82085
:1004140090E668E04409F090E65CE0443DF0D2AF39
:1004240090E680E020E105D209120CA290E680E07B
:1004340054F7F0538EF8C208300605120080C20645
:100444003008291208FD5024C208120D5620051642
:1004540090E682E030E704E020E1EF90E682E030CD
:10046400E604E020E0E4120CFE1209FE1206088005
:01047400C7C0
:1000800090E6B9E070030201311470030201AE245E
:10009000FE700302023124FB700302012B14700373
:1000A0000201251460731460762405600302029037
:1000B000120E86400302029C90E6BBE024FE602202
:1000C00014603324FD601114602224067048E52476
:1000D00090E6B3F0E5258037E52C90E6B3F0E52D0A
:1000E000802DE52690E6B3F0E5278023E52890E60D
:1000F000B3F0E529801990E6BAE0FF120D2AAA06AE
:10010000A9077B01EA494B600DEE90E6B3F0EF9052
:10011000E6B4F002029C020295120E4D02029C12FD
:100120000E7A02029C120BF202029C120E3B020299
:100130009C120E88400302029C90E6B8E0247F6087
:100140001514601924027063A205E43325E0FFA2B0
:1001500007E4334F8041E490E740F0803F90E6BCF5
:10016000E0547EFF7E00E0D394807C0040047D015B
:1001700080027D00EC4EFEED4F2470F582740E3E41
:10018000F583E493FF3395E0FEEF24A1FFEE34E620
:100190008F82F583E0540190E740F0E4A3F090E60D
:1001A0008AF090E68B7402F002029C020295120E15
:1001B0008A400302029C90E6B8E024FE6016240206
:1001C000600302029C90E6BAE0B40105C205020297
:1001D0009C02029590E6BAE0705590E6BCE0547E31
:1001E000FF7E00E0D394807C0040047D0180027D8E
:1001F00000EC4EFEED4F2470F582740E3EF583E464
:1002000093FF3395E0FEEF24A1FFEE34E68F82F5F5
:1002100083E054FEF090E6BCE05480131313541FA7
:10022000FFE0540F2F90E683F0E04420F0806D80D3
:1002300064120E8C506690E6B8E024FE6019240229
:10024000705A90E6BAE0B40104D205804F90E6BA45
:10025000E064026047803E90E6BCE0547EFF7E0092
:10026000E0D394807C0040047D0180027D00EC4E50
:10027000FEED4F2470F582740E3EF583E493FF3358
:1002800095E0FEEF24A1FFEE34E68F82F58380082F
:10029000120475500790E6A0E04401F090E6A0E05B
:0302A0004480F0A7
:0102A3002238
:03003300020E8238
:040E820053D8EF3220
:100A00001201000200000040510431AF0000010259
:100A100000010A0600020000004001000902270050
:100A200001010080320904000003FF0000000705F7
:100A30000202000200070586020002000705080204
:100A400000020009022700010100803209040000B1
:100A500003FF0000000705020240000007058602B0
:100A600040000007050802400000040309041003C9
:100A700044004C00490034003000300030003403A2
:100A800044004C0049002000550053004200200063
:100A900046005800320020004600690072006D00D8
:100AA00077006100720065002000320030003000E5
:040AB000380000000A
:100823004110A4024110A50360801000023F0101A2
:10083300010101070003020202020200010101019A
:1008430001010107002D00000000003F3F010101ED
:100853000101010703020202020202000202020274
:10086300020202072D0000000000003F03390101CE
:10087300010101070003020202020200050505054A
:1008830005050507002D00000000003F38010101A8
:100893000101010703020202020202000606060624
:1008A300060606072D0000000000003F60241080AC
:1008B3000000000000000000000000000000000035
:1008C3000000813615170004030200803616170056
:0408D3000403020117
:100CD100AD0775AF07BD02087410F59A74A4F59BB2
:100CE100BD03087410F59A74A5F59B759DE4759E76
:0D0CF1003090E67BE090E67CF000000022F1
:100AB40090E60174EEF090E4807403F090E6F5742F
:100AC400FFF090E6F374E0F0E490E6C3F090E6C142
:100AD400F090E6C27407F090E6C0744EF0E490E63D
:100AE400F4F075AF077410F59A7400F59B759DE4E6
:100AF400E4F59EFF90E67BE090E67CF00FBF80F487
:100B040090E67174FFF0F5B490E672E04480F0432F
:100B1400B680000000E490E6C4F000000090E6C552
:100B2400F0901080E090E6C6F0901081E090E6C767
:100B3400F0901082E090E6C8F0901083E090E6C94F
:100B4400F0901084E090E6CAF0901085E090E6CB37
:100B5400F0901086E090E6CCF0901087E090E6CD1F
:010B6400F0A0
:010B6500226D
:03004300020900AF
:030053000209009F
:10090000020DDF00020E2500020E0F00020DF7009F
:10091000020C6C00020C2F000208FF00020E8E0079
:10092000020E8F00020E9000020E9100020E920045
:10093000020E9300020E9400020E9500020E960025
:10094000020E9700020E8E00020E9800020E990011
:10095000020E9A00020E9B00020E9C00020E9D00E9
:10096000020E9E00020E8E00020E8E00020E8E00FF
:10097000020E9F00020EA000020EA100020EA200B5
:10098000020EA300020EA400020EA500020EA60095
:10099000020EA700020EA800020EA900020EAA0075
:1009A000020EAB00020EAC00020EAD00020EAE0055
:0809B000020EAF00020EB000C0
:100CFE0090E682E030E004E020E60B90E682E03001
:100D0E00E119E030E71590E680E04401F07F147EB3
:0C0D1E00001209B890E680E054FEF022BC
:100D560090E682E044C0F090E681F043870100000F
:040D66000000002267
:100CA20030090990E680E0440AF0800790E680E08F
:100CB2004408F07FDC7E051209B890E65D74FFF00F
:0F0CC20090E65FF05391EF90E680E054F7F02258
:020D2A00A90717
:100D2C00AE2EAF2F8F828E83A3E064037017AD01BC
:100D3C0019ED7001228F828E83E07C002FFDEC3E3A
:090D4C00FEAF0580DF7E007F0090
:010D5500227B
:1009B8008E188F1990E600E054187012E51924017A
:1009C800FFE43518C313F518EF13F519801590E6F1
:1009D80000E05418FFBF100BE51925E0F519E518DC
:1009E80033F518E5191519AE18700215184E60057B
:0609F800120D6A80EE22E0
:100D6A007400F58690FDA57C05A3E582458370F99C
:010D7A002256
:0D08D700C100C103C102C104C10101300014
:0408E500AF19AE1881
:1008E900AD07AC06E5BB30E7FB90E6F0ECF090E62F
:0408F900F1EDF0220B
:100DBF00E5BB30E7FB90E6F1E0F530E5BB30E7FB54
:0F0DCF0090E6F0E0F53390E6F2E0F532E4FEFF57
:010DDE0022F2
:10072B0090E600E054E74410F000000090E61074EF
:10073B00A0F090E611F000000090E61274A2F00019
:10074B000000E490E613F000000090E61474E2F071
:10075B0000000090E61574A2F000000090E604740F
:10076B0080F00000007402F00000007408F000003C
:10077B00007406F0000000E4F000000090E618049E
:10078B00F00000007411F0000000E490E61BF00094
:10079B00000090E61A7409F0000000E490E68DF07A
:1007AB0000000090E69D7480F0000000F000000057
:1007BB00120AB400000090E6D27401F00000009021
:1007CB00E6E204F0000000901093E090E6C7F00022
:1007DB000000901097E090E6CBF000000090109A8C
:1007EB00E090E60CF0000000901098E090E6CCF062
:1007FB00000000901099E090E6CDF000000043B2AD
:10080B001143800143801000000090E672E0440821
:08081B00F07F017E000209B824
:10060800E5BB30E749E5AB20E14490E6F4E030E0B3
:100618003D30011200000090E6D07401F0000000A7
:10062800E490E6D18010000000E490E6D0F00000ED
:100638000090E6D17420F0000000120D9D0000002B
:10064800E4F5BB000000E5BB30E7FB00000030002C
:100658004EE5BB30E74990E6F4E030E142E5AC20F6
:10066800E03D30011200000090E6D07401F0000077
:1006780000E490E6D18010000000E490E6D0F0009D
:10068800000090E6D17420F0000000120D7B0000FD
:100698000075BB06000000E5BB30E7FB000000204A
:1006A800030302072AE5AA20E67843801000000029
:1006B80053B2FBE58030E2FB00000090E69CE0FED0
:1006C80090E69DE07C002400F519EC3EF518E4FF67
:1006D800FEC3EF9519E5186480F8EE648098503CE5
:1006E80074002FF58274FC3EF583E0FD74012FF54C
:1006F8008274FC3EF583E0F51D309902C2998D990C
:10070800E59830E1FB851D997401251CF51CE4353D
:100718001BF51B74022FFFE43EFE80B590E69D7426
:0207280080F05F
:01072A0022AC
:0208FD00D32204
:0209FE00D32202
:020E8600D32275
:100BF20090E680E030E71800000090E6247402F0EE
:100C0200000000E490E625F0000000D2018016000A
:100C12000000E490E624F000000090E6257440F025
:0D0C2200000000C20190E6BAE0F534D322D4
:100E3B0090E740E534F0E490E68AF090E68B04F01E
:020E4B00D322B0
:080E7A0090E6BAE0F531D32245
:100E4D0090E740E531F0E490E68AF090E68B04F00F
:020E5D00D3229E
:020E8800D32273
:020E8A00D32271
:020E8C00D3226F
:1004750090E6B9E0244C602B24FD603124FD6049F1
:100485001470030205941470030205B61470030278
:1004950005DF240A6003020604D20090E74074B326
:1004A5000205AAC20090E74074B40205AA90E604CA
:1004B5007480F00000007406F0000000E4F0000015
:1004C5000090E74074B70205AAE5BA20E0FB90E684
:1004D500C6E04401F000000090E6C0744EF0000054
:1004E5000090E6B8E020E759E490E68BF0E5BA2005
:1004F500E0FB90E6BBE0FE90E6BAE0FDEEF518ED18
:10050500F5197F03120CD10000001208E500000068
:1005150090E740E0FEA3E0FDEEF518EDF5197F024A
:10052500120CD1E490E68BF00000001208E590E78C
:100535004074B8F0E490E68AF090E68B7404020506
:10054500FA90E6BBE0FE90E6BAE0FDEEF518EDF5B3
:10055500197F03120CD10000001208E5000000000D
:1005650000000000007F02120CD1000000120DBF38
:1005750000000090E740E533F0000000A3E532F00D
:10058500000000E490E68AF090E68B74028066D263
:100595000343B2115380FE7598204387805380EF43
:1005A50090E74074BBF0E490E68AF090E68B048017
:1005B5004490E74074BCF0000000E4A3F0000000A4
:1005C500E58030E1067401F0000000000000E490D1
:1005D500E68AF090E68B7402801B000000E490E749
:1005E50040F0000000A304F0000000E490E68AF06B
:1005F50090E68B7402F090E6A0E04480F08002D390
:0206050022C30E
:0106070022D0
:100DDF00C0E0C083C082D2065391EF90E65D7401EC
:080DEF00F0D082D083D0E03285
:100E0F00C0E0C083C0825391EF90E65D7404F0D0D0
:060E1F0082D083D0E03216
:100E2500C0E0C083C0825391EF90E65D7402F0D0BC
:060E350082D083D0E03200
:100C6C00C0E0C083C082852A26852B2785278285F4
:100C7C002683A37402F08522288523298529828561
:100C8C002883A37407F05391EF90E65D7410F0D0B5
:060C9C0082D083D0E0329B
:100DF700C0E0C083C082D2085391EF90E65D7408CB
:080E0700F0D082D083D0E0326C
:100C2F00C0E0C083C08290E680E030E720852226B6
:100C3F00852327852782852683A37402F0852A289A
:100C4F00852B29852982852883A37407F05391EF7B
:0D0C5F0090E65D7420F0D082D083D0E032AA
:0108FF0032C6
:010E8E003231
:010E8F003230
:010E9000322F
:010E9100322E
:010E9200322D
:010E9300322C
:010E9400322B
:010E9500322A
:010E96003229
:010E97003228
:010E98003227
:010E99003226
:010E9A003225
:010E9B003224
:010E9C003223
:010E9D003222
:010E9E003221
:010E9F003220
:010EA000321F
:010EA100321E
:010EA200321D
:010EA300321C
:010EA400321B
:010EA500321A
:010EA6003219
:010EA7003218
:010EA8003217
:010EA9003216
:010EAA003215
:010EAB003214
:010EAC003213
:010EAD003212
:010EAE003211
:010EAF003210
:010EB000320F
:100D7B00901092E090E6C6F0000000901094E09086
:100D8B00E6C8F0000000901095E090E6C9F0000076
:020D9B00002234
:100D9D0090109BE090E6C6F000000090109DE09052
:100DAD00E6C8F000000090109EE090E6C9F000004B
:020DBD00002212
:03000000020B668A
:0C0B6600787FE4F6D8FD758134020BADF9
:100E5F00EB9FF5F0EA9E42F0E99D42F0E89C45F0E9
:010E6F002260
:100B72000202A4E493A3F8E493A34003F68001F2F3
:100B820008DFF48029E493A3F85407240CC8C33384
:100B9200C4540F4420C8834004F456800146F6DF53
:100BA200E4800B0102040810204080900823E47EB8
:100BB200019360BCA3FF543F30E509541FFEE49348
:100BC200A360010ECF54C025E060A840B8E493A30F
:100BD200FAE493A3F8E493A3C8C582C8CAC583CA3A
:100BE200F0A3C8C582C8CAC583CADFE9DEE780BEF2
:0108E4000013
:00000001FF
